{
  "contractName": "SupplyChain",
  "abi": [
    {
      "inputs": [],
      "payable": false,
      "stateMutability": "nonpayable",
      "type": "constructor"
    },
    {
      "anonymous": false,
      "inputs": [
        {
          "indexed": false,
          "name": "sku",
          "type": "uint256"
        }
      ],
      "name": "ForSale",
      "type": "event"
    },
    {
      "anonymous": false,
      "inputs": [
        {
          "indexed": false,
          "name": "sku",
          "type": "uint256"
        }
      ],
      "name": "Sold",
      "type": "event"
    },
    {
      "anonymous": false,
      "inputs": [
        {
          "indexed": false,
          "name": "sku",
          "type": "uint256"
        }
      ],
      "name": "Shipped",
      "type": "event"
    },
    {
      "anonymous": false,
      "inputs": [
        {
          "indexed": false,
          "name": "sku",
          "type": "uint256"
        }
      ],
      "name": "Received",
      "type": "event"
    },
    {
      "constant": false,
      "inputs": [
        {
          "name": "_name",
          "type": "string"
        },
        {
          "name": "_price",
          "type": "uint256"
        }
      ],
      "name": "addItem",
      "outputs": [
        {
          "name": "",
          "type": "bool"
        }
      ],
      "payable": false,
      "stateMutability": "nonpayable",
      "type": "function"
    },
    {
      "constant": false,
      "inputs": [
        {
          "name": "sku",
          "type": "uint256"
        }
      ],
      "name": "buyItem",
      "outputs": [],
      "payable": true,
      "stateMutability": "payable",
      "type": "function"
    },
    {
      "constant": false,
      "inputs": [
        {
          "name": "sku",
          "type": "uint256"
        }
      ],
      "name": "shipItem",
      "outputs": [],
      "payable": false,
      "stateMutability": "nonpayable",
      "type": "function"
    },
    {
      "constant": false,
      "inputs": [
        {
          "name": "sku",
          "type": "uint256"
        }
      ],
      "name": "receiveItem",
      "outputs": [],
      "payable": false,
      "stateMutability": "nonpayable",
      "type": "function"
    },
    {
      "constant": true,
      "inputs": [
        {
          "name": "_sku",
          "type": "uint256"
        }
      ],
      "name": "fetchItem",
      "outputs": [
        {
          "name": "name",
          "type": "string"
        },
        {
          "name": "sku",
          "type": "uint256"
        },
        {
          "name": "price",
          "type": "uint256"
        },
        {
          "name": "state",
          "type": "uint256"
        },
        {
          "name": "seller",
          "type": "address"
        },
        {
          "name": "buyer",
          "type": "address"
        }
      ],
      "payable": false,
      "stateMutability": "view",
      "type": "function"
    }
  ],
  "bytecode": "0x608060405234801561001057600080fd5b50336000806101000a81548173ffffffffffffffffffffffffffffffffffffffff021916908373ffffffffffffffffffffffffffffffffffffffff1602179055506000600181905550610da1806100686000396000f30060806040526004361061006d576000357c0100000000000000000000000000000000000000000000000000000000900463ffffffff16806362d6bbdf14610072578063a26be999146100fd578063ad4b9cfb1461012a578063e7fb74c71461024b578063f61c899a1461026b575b600080fd5b34801561007e57600080fd5b506100e3600480360381019080803590602001908201803590602001908080601f016020809104026020016040519081016040528093929190818152602001838380828437820191505050505050919291929080359060200190929190505050610298565b604051808215151515815260200191505060405180910390f35b34801561010957600080fd5b5061012860048036038101908080359060200190929190505050610451565b005b34801561013657600080fd5b506101556004803603810190808035906020019092919050505061061b565b60405180806020018781526020018681526020018581526020018473ffffffffffffffffffffffffffffffffffffffff1673ffffffffffffffffffffffffffffffffffffffff1681526020018373ffffffffffffffffffffffffffffffffffffffff1673ffffffffffffffffffffffffffffffffffffffff168152602001828103825288818151815260200191508051906020019080838360005b8381101561020b5780820151818401526020810190506101f0565b50505050905090810190601f1680156102385780820380516001836020036101000a031916815260200191505b5097505050505050505060405180910390f35b610269600480360381019080803590602001909291905050506107c6565b005b34801561027757600080fd5b5061029660048036038101908080359060200190929190505050610b07565b005b60007fa96ae0fc3224ebd79eebfe54bd130cc9cb94416cddd1f2386115e00b725324686001546040518082815260200191505060405180910390a160c06040519081016040528084815260200160015481526020018381526020016000600381111561030057fe5b81526020013373ffffffffffffffffffffffffffffffffffffffff168152602001600073ffffffffffffffffffffffffffffffffffffffff16815250600260006001548152602001908152602001600020600082015181600001908051906020019061036d929190610cd0565b50602082015181600101556040820151816002015560608201518160030160006101000a81548160ff021916908360038111156103a657fe5b021790555060808201518160030160016101000a81548173ffffffffffffffffffffffffffffffffffffffff021916908373ffffffffffffffffffffffffffffffffffffffff16021790555060a08201518160040160006101000a81548173ffffffffffffffffffffffffffffffffffffffff021916908373ffffffffffffffffffffffffffffffffffffffff16021790555090505060018054016001819055506001905092915050565b806002600381111561045f57fe5b6002600083815260200190815260200160002060030160009054906101000a900460ff16600381111561048e57fe5b141515610503576040517f08c379a000000000000000000000000000000000000000000000000000000000815260040180806020018281038252600c8152602001807f4974656d2073686970706564000000000000000000000000000000000000000081525060200191505060405180910390fd5b338073ffffffffffffffffffffffffffffffffffffffff163373ffffffffffffffffffffffffffffffffffffffff161415156105a7576040517f08c379a00000000000000000000000000000000000000000000000000000000081526004018080602001828103825260188152602001807f5468652073656e646572206973207468652063616c6c6572000000000000000081525060200191505060405180910390fd5b60036002600085815260200190815260200160002060030160006101000a81548160ff021916908360038111156105da57fe5b02179055507fa8142743f8f70a4c26f3691cf4ed59718381fb2f18070ec52be1f1022d855557836040518082815260200191505060405180910390a1505050565b60606000806000806000600260008881526020019081526020016000206000018054600181600116156101000203166002900480601f0160208091040260200160405190810160405280929190818152602001828054600181600116156101000203166002900480156106cf5780601f106106a4576101008083540402835291602001916106cf565b820191906000526020600020905b8154815290600101906020018083116106b257829003601f168201915b5050505050955060026000888152602001908152602001600020600101549450600260008881526020019081526020016000206002015493506002600088815260200190815260200160002060030160009054906101000a900460ff16600381111561073757fe5b92506002600088815260200190815260200160002060030160019054906101000a900473ffffffffffffffffffffffffffffffffffffffff1691506002600088815260200190815260200160002060040160009054906101000a900473ffffffffffffffffffffffffffffffffffffffff16905085858585858595509550955095509550955091939550919395565b600154600060038111156107d657fe5b6002600083815260200190815260200160002060030160009054906101000a900460ff16600381111561080557fe5b14151561087a576040517f08c379a000000000000000000000000000000000000000000000000000000000815260040180806020018281038252600d8152602001807f4974656d20666f722073616c650000000000000000000000000000000000000081525060200191505060405180910390fd5b6002600083815260200190815260200160002060020154803410151515610909576040517f08c379a000000000000000000000000000000000000000000000000000000000815260040180806020018281038252600f8152602001807f6e6f74207061696420656e6f756768000000000000000000000000000000000081525060200191505060405180910390fd5b826000806002600087815260200190815260200160002060030160019054906101000a900473ffffffffffffffffffffffffffffffffffffffff1673ffffffffffffffffffffffffffffffffffffffff166108fc60026000898152602001908152602001600020600201549081150290604051600060405180830381858888f1935050505015801561099f573d6000803e3d6000fd5b50336002600088815260200190815260200160002060040160006101000a81548173ffffffffffffffffffffffffffffffffffffffff021916908373ffffffffffffffffffffffffffffffffffffffff16021790555060016002600088815260200190815260200160002060030160006101000a81548160ff02191690836003811115610a2857fe5b02179055507f92f64ca637d023f354075a4be751b169c1a8a9ccb6d33cdd0cb3520543995727866040518082815260200191505060405180910390a16002600084815260200190815260200160002060020154915081340390506002600084815260200190815260200160002060040160009054906101000a900473ffffffffffffffffffffffffffffffffffffffff1673ffffffffffffffffffffffffffffffffffffffff166108fc829081150290604051600060405180830381858888f19350505050158015610afe573d6000803e3d6000fd5b50505050505050565b8060016003811115610b1557fe5b6002600083815260200190815260200160002060030160009054906101000a900460ff166003811115610b4457fe5b141515610bb9576040517f08c379a00000000000000000000000000000000000000000000000000000000081526004018080602001828103825260098152602001807f4974656d20736f6c64000000000000000000000000000000000000000000000081525060200191505060405180910390fd5b338073ffffffffffffffffffffffffffffffffffffffff163373ffffffffffffffffffffffffffffffffffffffff16141515610c5d576040517f08c379a00000000000000000000000000000000000000000000000000000000081526004018080602001828103825260188152602001807f5468652073656e646572206973207468652063616c6c6572000000000000000081525060200191505060405180910390fd5b600280600085815260200190815260200160002060030160006101000a81548160ff02191690836003811115610c8f57fe5b02179055507ff00b9a5725b80c54016f42114f6ed7792d22eecb116011c4afac29c57bef6c95836040518082815260200191505060405180910390a1505050565b828054600181600116156101000203166002900490600052602060002090601f016020900481019282601f10610d1157805160ff1916838001178555610d3f565b82800160010185558215610d3f579182015b82811115610d3e578251825591602001919060010190610d23565b5b509050610d4c9190610d50565b5090565b610d7291905b80821115610d6e576000816000905550600101610d56565b5090565b905600a165627a7a723058200a6f3cd6478c49fb9c0d54c10f507ca6771851bc106675a3e5f684ac095886600029",
  "source": "pragma solidity ^0.4.23;\n//pragma solidity ^0.5.0;\n\ncontract SupplyChain {\n\n  /* set owner */\n  address owner;\n\n  /* Add a variable called skuCount to track the most recent sku # */\n  uint private skuCount;\n\n  /* Add a line that creates a public mapping that maps the SKU (a number) to an Item.\n     Call this mappings items\n  */\n  mapping (uint => Item) items;\n\n  /* Add a line that creates an enum called State. This should have 4 states\n    ForSale\n    Sold\n    Shipped\n    Received\n    (declaring them in this order is important for testing)\n  */\n  enum State {ForSale, Sold, Shipped, Received}\n  State enumState;\n\n  /* Create a struct named Item.\n    Here, add a name, sku, price, state, seller, and buyer\n    We've left you to figure out what the appropriate types are,\n    if you need help you can ask around :)\n  */\n  struct Item {\n    string name;\n    uint sku;\n    uint price;\n    State state;\n    address seller;\n    address buyer; \n  }\n\n  /* Create 4 events with the same name as each possible State (see above)\n    Each event should accept one argument, the sku*/\n  event ForSale(uint sku);\n  event Sold(uint sku);\n  event Shipped(uint sku);\n  event Received(uint sku);\n\n/* Create a modifer that checks if the msg.sender is the owner of the contract */\n  modifier verifySender (address _address) {require (owner == _address, \"The sender is the owner\"); _;}\n  modifier verifyCaller (address _address) {require (msg.sender == _address, \"The sender is the caller\"); _;}\n\n  modifier paidEnough(uint _price) {require(msg.value >= _price, \"not paid enough\"); _;}\n  modifier checkValue(uint _sku) {\n    //refund them after pay for item (why it is before, _ checks for logic before func)\n    _;\n    uint _price = items[_sku].price;\n    uint amountToRefund = msg.value - _price;\n    items[_sku].buyer.transfer(amountToRefund);\n  }\n\n  /* For each of the following modifiers, use what you learned about modifiers\n   to give them functionality. For example, the forSale modifier should require\n   that the item with the given sku has the state ForSale. */\n  modifier forSale(uint _sku) {require(items[_sku].state == State.ForSale, \"Item for sale\"); _;}\n  modifier sold(uint _sku) {require(items[_sku].state == State.Sold, \"Item sold\"); _;}\n  modifier shipped(uint _sku) {require(items[_sku].state == State.Shipped, \"Item shipped\"); _;}\n  modifier received(uint _sku) {require(items[_sku].state == State.Received, \"Item received\"); _;}\n\n  constructor() public {\n    /* Here, set the owner as the person who instantiated the contract\n       and set your skuCount to 0. */\n    owner = msg.sender;\n    skuCount = 0;\n  }\n\n  function addItem(string memory _name, uint _price) public returns(bool){\n    emit ForSale(skuCount);\n    items[skuCount] = Item({name: _name, sku: skuCount, price: _price, state: State.ForSale, seller: msg.sender, buyer: 0});\n    skuCount = skuCount + 1;\n    return true;\n  }\n\n  /* Add a keyword so the function can be paid. This function should transfer money\n    to the seller, set the buyer as the person who called this transaction, and set the state\n    to Sold. Be careful, this function should use 3 modifiers to check if the item is for sale,\n    if the buyer paid enough, and check the value after the function is called to make sure the buyer is\n    refunded any excess ether sent. Remember to call the event associated with this function!*/\n\n  function buyItem(uint sku)\n    public\n    payable\n    forSale(skuCount)\n    paidEnough(items[sku].price)\n    checkValue(sku)\n  {\n    items[sku].seller.transfer(items[sku].price);\n    items[sku].buyer = msg.sender;\n    items[sku].state = State.Sold;\n    emit Sold(sku);\n  }\n\n  /* Add 2 modifiers to check if the item is sold already, and that the person calling this function\n  is the seller. Change the state of the item to shipped. Remember to call the event associated with this function!*/\n  function shipItem(uint sku)\n    public\n    sold(sku)\n    verifyCaller(msg.sender)\n  {\n    items[sku].state = State.Shipped;\n    emit Shipped(sku);\n  }\n\n  /* Add 2 modifiers to check if the item is shipped already, and that the person calling this function\n  is the buyer. Change the state of the item to received. Remember to call the event associated with this function!*/\n  function receiveItem(uint sku)\n    public\n    shipped(sku)\n    verifyCaller(msg.sender)\n  {\n    items[sku].state = State.Received;\n    emit Received(sku);\n  }\n\n  /* We have these functions completed so we can run tests, just ignore it :) */\n  function fetchItem(uint _sku) public view returns (string memory name, uint sku, uint price, uint state, address seller, address buyer) {\n    name = items[_sku].name;\n    sku = items[_sku].sku;\n    price = items[_sku].price;\n    state = uint(items[_sku].state);\n    seller = items[_sku].seller;\n    buyer = items[_sku].buyer;\n    return (name, sku, price, state, seller, buyer);\n  }\n\n}\n",
  "sourcePath": "/Users/mlux/Documents/Deloitte/Sandbox/ConsenSysAcademy/supply-chain-matthieulux/contracts/SupplyChain.sol",
  "compiler": {
    "name": "solc",
    "version": "0.4.24+commit.e67f0147.Emscripten.clang"
  },
  "schemaVersion": "2.0.1",
  "updatedAt": "2018-12-04T17:34:24.769Z"
}